:020000040800F2
:1000000000000120D5020008250300082503000890
:100010002503000825030008250300080000000050
:1000200000000000000000000000000025030008A0
:100030002503000800000000250300082503000830
:1000400025030008250300082503000825030008F0
:1000500025030008250300082503000825030008E0
:1000600025030008250300082503000825030008D0
:1000700025030008250300082503000825030008C0
:1000800025030008250300082503000800000000E0
:100090000000000000000000000000002503000830
:1000A0002503000825030008250300082503000890
:1000B0002503000825030008250300082503000880
:1000C0002503000825030008250300082503000870
:1000D0002503000825030008250300080000000090
:1000E0002503000825030008250300080000000080
:1000F00000000000000000000000000025030008D0
:10010000000000002503000825030008250300085F
:1001100000000000000000000000000000000000DF
:10012000250300082503000825030008250300080F
:10013000250300080000000000000000000000008F
:10014000000000000000000000000000250300087F
:1001500025030008250300082503000825030008DF
:10016000250300082503000800000000000000002F
:10017000000000000000000000000000000000007F
:10018000000000002503000800000000000000003F
:04019000250300083B
:1001940010B5054C237833B9044B13B10448AFF3BD
:1001A40000800123237010BD000000200000000027
:1001B4007006000808B5034B1BB103490348AFF3AD
:1001C400008008BD00000000040000207006000844
:1001D40080B586B000AF002300220321422000F046
:1001E400A1F8314BDB68304A43F04003D360052368
:1001F4007B6108E0796900230122422000F092F833
:100204007B6901337B617B69072BF3DD01233B6150
:100214000321422000F0DAF903467B600023FB60EF
:1002240002E0FB680133FB60FB68B3F57A7FF8DB1F
:100234007B68002BECD00321422000F0C7F9034671
:10024400002BE5D10523BB6008E0BB6800221946FA
:10025400422000F049F9BB680133BB60BB68072B3F
:10026400F3DD3B69082B01D100233B613B6903F0BB
:1002740001031A460521422000F036F93B695B1060
:1002840003F001031A460621422000F02DF93B69D0
:100294009B1003F001031A460721422000F024F9C1
:1002A4003B6901333B61B3E70004024080B400AF13
:1002B400064BD3F88830054A43F47003C2F88830FB
:1002C40000BFBD465DF8047B704700BF00ED00E051
:1002D400DFF834D00D480E490E4A002302E0D4580A
:1002E400C4500433C4188C42F9D30B4A0B4C00237A
:1002F40001E013600432A242FBD3FFF7D7FF00F002
:1003040091F9FFF765FF704700000120000000200D
:100314000000002090060008000000201C000020BF
:10032400FEE7000080B485B000AFB9607A603B603E
:100334000346FB73FB7B412B02D0422B64D0C7E006
:10034400664B1B6B654A43F0010313637B68032B05
:100354003BD801A252F823F06D030008870300087C
:100364009F030008B70300085D4B1B68BA6852007E
:10037400032101FA02F2D2431146594A0B40136099
:1003840023E0574B1B68BA685200012101FA02F2BC
:100394001146534A0B43136017E0514B1B68BA686C
:1003A4005200022101FA02F211464D4A0B43136036
:1003B4000BE04B4B1B68BA685200032101FA02F2AE
:1003C4001146474A0B43136000BF3B68002B03D020
:1003D4003B68012B0CD07BE0414B5B680121BA6880
:1003E40001FA02F2D24311463D4A0B4053600AE03F
:1003F4003B4B5B680121BA6801FA02F21146384AA4
:100404000B43536000BF63E0344B1B6B334A43F030
:10041400020313637B68032B3BD801A252F823F039
:10042400350400084F040008670400087F0400082E
:100434002C4B1B68BA685200032101FA02F2D24322
:100444001146284A0B40136023E0264B1B68BA6808
:100454005200012101FA02F21146224A0B431360B1
:1004640017E0204B1B68BA685200022101FA02F21D
:1004740011461C4A0B4313600BE01A4B1B68BA6805
:100484005200032101FA02F21146164A0B4313608B
:1004940000BF3B68002B03D03B68012B0CD016E057
:1004A400104B5B680121BA6801FA02F2D24311468B
:1004B4000C4A0B4053600AE00A4B5B680121BA689E
:1004C40001FA02F21146074A0B43536000BF00BF12
:1004D40000BF1437BD465DF8047B70470038024006
:1004E400000002400004024080B487B000AF03461D
:1004F400B9607A60FB73FB7B412B02D0422B2DD079
:1005040059E0304B1B68BA685200032101FA02F229
:100514001A40BB685B0022FA03F3012B1BD17B68F2
:10052400002B0AD0274B5B690121BA6801FA02F259
:100534001146244A0B4353610AE0224B5B690121B3
:10054400BA6801FA02F2D24311461E4A0B405361C3
:100554000023FB752FE00123FB752CE01A4B1B686D
:10056400BA685200012101FA02F21A40BB685B002A
:1005740022FA03F3002B1BD07B68002B0AD0124B0A
:100584005B690121BA6801FA02F211460E4A0B4373
:1005940053610AE00C4B5B690121BA6801FA02F26B
:1005A400D2431146084A0B4053610023FB7501E016
:1005B4000123FB7500BFFB7D18461C37BD465DF863
:1005C400047B7047000002400004024080B485B000
:1005D40000AF03463960FB71FB79412B02D0422BFB
:1005E4000AD013E00D4B1A693B6822FA03F3DBB21D
:1005F40003F00103FB7309E0094B1A693B6822FA13
:1006040003F3DBB203F00103FB7300BFFB7B18466B
:100614001437BD465DF8047B704700BF00000240FC
:100624000004024070B50D4D0D4C641BA41000264F
:10063400A64209D10B4D0C4C00F018F8641BA41011
:100644000026A64205D170BD55F8043B98470136F3
:10065400EEE755F8043B98470136F2E788060008B0
:1006640088060008880600088C060008F8B500BF54
:10067400F8BC08BC9E467047F8B500BFF8BC08BC7F
:040684009E467047D7
:04068800B9010008AC
:04068C0095010008CC
:04000005080002D518
:00000001FF
