:020000040800F2
:10000000000001200D0700085D0700085D070008DB
:100010005D0700085D0700085D070008000000009C
:100020000000000000000000000000005D07000864
:100030005D070008000000005D0700085D0700087C
:100040005D0700085D0700085D0700085D07000800
:100050005D0700085D0700085D0700085D070008F0
:100060005D0700085D0700085D0700085D070008E0
:100070005D0700085D0700085D0700085D070008D0
:100080005D0700085D0700085D070008000000002C
:100090000000000000000000000000005D070008F4
:1000A0005D0700085D0700085D0700085D070008A0
:1000B0005D0700085D0700085D0700085D07000890
:1000C0005D0700085D0700085D0700085D07000880
:1000D0005D0700085D0700085D07000800000000DC
:1000E0005D0700085D0700085D07000800000000CC
:1000F0000000000000000000000000005D07000894
:10010000000000005D0700085D0700085D070008AB
:1001100000000000000000000000000000000000DF
:100120005D0700085D0700085D0700085D0700081F
:100130005D07000800000000000000000000000053
:100140000000000000000000000000005D07000843
:100150005D0700085D0700085D0700085D070008EF
:100160005D0700085D0700080000000000000000B7
:10017000000000000000000000000000000000007F
:10018000000000005D070008000000000000000003
:040190005D070008FF
:1001940010B5054C237833B9044B13B10448AFF3BD
:1001A40000800123237010BD18000020000000000F
:1001B400A807000808B5034B1BB103490348AFF374
:1001C400008008BD000000001C000020A8070008F3
:1001D40080B483B000AF0346FB71FB79412B02D09E
:1001E400422B07D00DE00A4B1B6B094A43F0010375
:1001F400136306E0064B1B6B054A43F002031363CB
:1002040000BF00BF0C37BD465DF8047B704700BFDC
:100214000038024090B482B000AF0446084611464C
:100224001A462346FB710346BB710B467B7113468A
:100234003B71FB79412B02D0422B49D091E04B4BCF
:100244001B68BA795200032101FA02F2D243114623
:10025400464A0B401360454B1B687979BA795200C2
:1002640001FA02F21146414A0B4313603F4B5B68AB
:10027400BA79012101FA02F2D24311463B4A0B40FA
:1002840053603A4B5B683A7902F00101BA7901FA9A
:1002940002F21146354A0B435360344BDB68BA799A
:1002A4005200032101FA02F2D24311462F4A0B40B5
:1002B400D3602E4BDB683A79521002F00301BA790D
:1002C400520001FA02F21146284A0B43D36048E077
:1002D400274B1B68BA795200032101FA02F2D24378
:1002E4001146234A0B401360214B1B687979BA7974
:1002F400520001FA02F211461D4A0B4313601C4BD3
:100304005B68BA79012101FA02F2D2431146184A14
:100314000B405360164B5B683A7902F00101BA79DD
:1003240001FA02F21146124A0B435360104BDB6888
:10033400BA795200032101FA02F2D24311460C4A5F
:100344000B40D3600A4BDB683A79521002F0030188
:10035400BA79520001FA02F21146054A0B43D360FE
:1003640000BF00BF0837BD4690BC70470000024084
:100374000004024080B485B000AF0346FB710B4615
:10038400BB7113467B71FB79412B02D0422B2DD0DC
:1003940059E0324B1B68BA795200032101FA02F288
:1003A4001A40BB795B0022FA03F3012B1BD17B7942
:1003B400002B0AD0294B5B69BA79012101FA02F2B8
:1003C4001146264A0B4353610AE0244B5B69BA7910
:1003D400012101FA02F2D2431146204A0B40536133
:1003E4000023FB7332E00123FB732FE01C4B1B68DB
:1003F400BA795200032101FA02F21A40BB795B0078
:1004040022FA03F3012B1BD17B79002B0AD0144B66
:100414005B69BA79012101FA02F21146104A0B43D1
:1004240053610AE00E4B5B69BA79012101FA02F2C9
:10043400D24311460A4A0B4053610023FB7305E083
:100444000123FB7302E00123FB7300BFFB7B18460F
:100454001437BD465DF8047B704700BF00000240BE
:100464000004024080B485B000AF03460A46FB7125
:100474001346BB710023FB73FB79412B02D0422B43
:100484000CD017E00F4B1B69BA79012101FA02F273
:100494001A40BB7922FA03F3FB730BE00A4B1B6986
:1004A400BA79012101FA02F21A40BB7922FA03F364
:1004B400FB7300BFFB7B18461437BD465DF8047B15
:1004C400704700BF000002400004024080B483B0C3
:1004D40000AF00237B6002E07B6801337B607B68B4
:1004E40047F22F529342F7D900BF00BF0C37BD46E5
:1004F4005DF8047B704780B582B000AF4220FFF7FF
:1005040067FE00237B6009E07B68D9B202230022E6
:100514004220FFF77FFE7B6801337B607B68032BFF
:10052400F2DD04233B6010E03B68D9B200230122D2
:100534004220FFF76FFE3B68DBB2012219464220DE
:10054400FFF718FF3B6801333B603B68062BEBDD8C
:1005540000BF00BF0837BD4680BD000080B582B033
:1005640000AF264B1B78002B44D104237B603EE074
:100574007B68DBB2002219464220FFF7FBFE002312
:100584003B6027E03B68DBB219464220FFF76AFF75
:100594000346002B1BD1FFF799FF3B68DBB21946DA
:1005A4004220FFF75FFF0346002B10D1134B0122BB
:1005B4001A707B68191F12483A6813465B0013448B
:1005C40003440B441A780F4B1A7000F033F83B685D
:1005D40001333B603B68032BD4DD7B68DBB2012233
:1005E40019464220FFF7C6FE7B6801337B607B68B7
:1005F400062BBDDD00BF0837BD4680BD340000209A
:10060400000000203500002080B400AF074B1B78A9
:10061400012B05D1054B00221A70054B1B7800E015
:10062400FF231846BD465DF8047B70473400002064
:100634003500002080B584B000AFFFF7E5FF034626
:10064400FB710023FB6027E0174AFB6813441B7807
:10065400FA799A421DD10023BB6017E0BB68D9B276
:10066400114AFB6813441B7818460122BB6802FA3E
:1006740003F300EA0302BB6842FA03F3DBB21A464F
:100684004120FFF777FEBB680133BB60BB68062BD4
:10069400E4DDFB680133FB60FB68092BD4DD00BF9C
:1006A40000BF1037BD4680BD0C00002080B582B06D
:1006B40000AF4120FFF78CFD00237B6009E07B68DD
:1006C400D9B2002301224120FFF7A4FD7B68013346
:1006D4007B607B68062BF2DDFFF70DFFFFF73EFF23
:1006E400FCE7000080B400AF064BD3F88830054A1D
:1006F40043F47003C2F8883000BFBD465DF8047B44
:10070400704700BF00ED00E0DFF834D00D480E491B
:100714000E4A002302E0D458C4500433C4188C4257
:10072400F9D30B4A0B4C002301E013600432A242BC
:10073400FBD3FFF7D7FF00F011F8FFF7B7FF7047BF
:10074400000001200000002018000020C807000855
:100754001800002038000020FEE7000070B50D4DA1
:100764000D4C641BA4100026A64209D10B4D0C4C61
:1007740000F018F8641BA4100026A64205D170BD31
:1007840055F8043B98470136EEE755F8043B984783
:100794000136F2E7C0070008C0070008C0070008D8
:1007A400C4070008F8B500BFF8BC08BC9E467047F3
:0C07B400F8B500BFF8BC08BC9E467047BA
:0407C000B901000873
:0407C4009501000893
:1007C800065B4F666D7D077F6F3F3F3F3F065B4F80
:0807D800666D7D077F6F0000D4
:040000050800070DDB
:00000001FF
