:020000040800F2
:1000000000000120D9020008290300082903000884
:100010002903000829030008290300080000000044
:10002000000000000000000000000000290300089C
:100030002903000800000000290300082903000824
:1000400029030008290300082903000829030008E0
:1000500029030008290300082903000829030008D0
:1000600029030008290300082903000829030008C0
:1000700029030008290300082903000829030008B0
:1000800029030008290300082903000800000000D4
:10009000000000000000000000000000290300082C
:1000A0002903000829030008290300082903000880
:1000B0002903000829030008290300082903000870
:1000C0002903000829030008290300082903000860
:1000D0002903000829030008290300080000000084
:1000E0002903000829030008290300080000000074
:1000F00000000000000000000000000029030008CC
:100100000000000029030008290300082903000853
:1001100000000000000000000000000000000000DF
:1001200029030008290300082903000829030008FF
:10013000290300080000000000000000000000008B
:10014000000000000000000000000000290300087B
:1001500029030008290300082903000829030008CF
:100160002903000829030008000000000000000027
:10017000000000000000000000000000000000007F
:10018000000000002903000800000000000000003B
:040190002903000837
:1001940010B5054C237833B9044B13B10448AFF3BD
:1001A40000800123237010BD000000200000000027
:1001B4007403000808B5034B1BB103490348AFF3AC
:1001C400008008BD00000000040000207403000843
:1001D40080B485B000AF344B1B6B334A43F0020349
:1001E4001363324B1B68314A23F0C00313602F4B57
:1001F4001B682E4A43F4806313602C4B1B682B4A04
:1002040043F480531360294B1B68284A43F480430A
:100214001360264BDB68254A43F04003D360234B2D
:100224005B68224A23F020035360204B5B681F4A1B
:1002340023F0400353601D4B5B681C4A23F080038A
:1002440053600123FB60194B1B6903F008037B60B7
:100254000023BB6002E0BB680133BB60BB6842F2B1
:100264000F729342F7DD7B68002BECD00F4B1B69B8
:1002740003F00803002BE6D10C4B5B690B4A23F017
:10028400E0035361FB68082B01D10023FB60074B9B
:100294005B69FA6852011146044A0B435361FB68D7
:1002A4000133FB60CFE700BF003802400004024086
:1002B40080B400AF064BD3F88830054A43F470038A
:1002C400C2F8883000BFBD465DF8047B704700BFAC
:1002D40000ED00E0DFF834D00D480E490E4A00234B
:1002E40002E0D458C4500433C4188C42F9D30B4AE6
:1002F4000B4C002301E013600432A242FBD3FFF74E
:10030400D7FF00F011F8FFF763FF704700000120EA
:1003140000000020000000209403000800000020DA
:100324001C000020FEE7000070B50D4D0D4C641B51
:10033400A4100026A64209D10B4D0C4C00F018F86D
:10034400641BA4100026A64205D170BD55F8043BD9
:1003540098470136EEE755F8043B98470136F2E733
:100364008C0300088C0300088C0300089003000829
:10037400F8B500BFF8BC08BC9E467047F8B500BF8E
:08038400F8BC08BC9E4670475E
:04038C00B9010008AB
:0403900095010008CB
:04000005080002D914
:00000001FF
