:020000040800F2
:1000000000000120A9050008F9050008F90500080D
:10001000F9050008F9050008F905000800000000CE
:10002000000000000000000000000000F9050008CA
:10003000F905000800000000F9050008F9050008AE
:10004000F9050008F9050008F9050008F905000898
:10005000F9050008F9050008F9050008F905000888
:10006000F9050008F9050008F9050008F905000878
:10007000F9050008F9050008F9050008F905000868
:10008000F9050008F9050008F9050008000000005E
:10009000000000000000000000000000F90500085A
:1000A000F9050008F9050008F9050008F905000838
:1000B000F9050008F9050008F9050008F905000828
:1000C000F9050008F9050008F9050008F905000818
:1000D000F9050008F9050008F9050008000000000E
:1000E000F9050008F9050008F905000800000000FE
:1000F000000000000000000000000000F9050008FA
:1001000000000000F9050008F9050008F9050008DD
:1001100000000000000000000000000000000000DF
:10012000F9050008F9050008F9050008F9050008B7
:10013000F9050008000000000000000000000000B9
:10014000000000000000000000000000F9050008A9
:10015000F9050008F9050008F9050008F905000887
:10016000F9050008F9050008000000000000000083
:10017000000000000000000000000000000000007F
:1001800000000000F9050008000000000000000069
:04019000F905000865
:1001940010B5054C237833B9044B13B10448AFF3BD
:1001A40000800123237010BD000000200000000027
:1001B400EC08000808B5034B1BB103490348AFF32F
:1001C400008008BD0000000004000020EC080008C6
:1001D40080B58CB000AF0023FB6208E0F96A00230D
:1001E4000122412000F008FAFB6A0133FB62FB6A3A
:1001F400082BF3DD01220021412000F0DFFA012267
:100204000121412000F0DAFA01220221412000F00C
:10021400D5FA01220321412000F0D0FA0122042161
:10022400412000F0CBFA01220521412000F0C6FA5A
:1002340000220621412000F0C1FA0023BB6202E043
:10024400BB6A0133BB62BB6ACC4A9342F8DD00222D
:100254000021412000F0B2FA01220121412000F0E6
:10026400ADFA01220221412000F0A8FA0022032164
:10027400412000F0A3FA00220421412000F09EFA5C
:1002840000220521412000F099FA00220621412094
:1002940000F094FA00237B6202E07B6A01337B6204
:1002A4007B6AB64A9342F8DD01220021412000F026
:1002B40085FA01220121412000F080FA0022022166
:1002C400412000F07BFA01220321412000F076FA5C
:1002D40001220421412000F071FA0022052141206D
:1002E40000F06CFA01220621412000F067FA002395
:1002F4003B6202E03B6A01333B623B6A9F4A9342A2
:10030400F8DD01220021412000F058FA01220121E8
:10031400412000F053FA01220221412000F04EFA5C
:1003240001220321412000F049FA00220421412046
:1003340000F044FA00220521412000F03FFA012296
:100344000621412000F03AFA0023FB6102E0FB6938
:100354000133FB61FB69894A9342F8DD00220021E5
:10036400412000F02BFA01220121412000F026FA5D
:1003740001220221412000F021FA00220321412020
:1003840000F01CFA00220421412000F017FA012297
:100394000521412000F012FA01220621412000F03B
:1003A4000DFA0023BB6102E0BB690133BB61BB6989
:1003B400724A9342F8DD01220021412000F0FEF947
:1003C40000220121412000F0F9F9012202214120FB
:1003D40000F0F4F901220321412000F0EFF900229A
:1003E4000421412000F0EAF901220521412000F016
:1003F400E5F901220621412000F0E0F900237B61A8
:1004040002E07B6901337B617B695C4A9342F8DDDE
:1004140001220021412000F0D1F9002201214120D4
:1004240000F0CCF901220221412000F0C7F9012299
:100434000321412000F0C2F901220421412000F0EF
:10044400BDF901220521412000F0B8F9012206215D
:10045400412000F0B3F900233B6102E03B69013322
:100464003B613B69454A9342F8DD0122002141206A
:1004740000F0A4F901220121412000F09FF901229A
:100484000221412000F09AF900220321412000F0CA
:1004940095F900220421412000F090F90022052161
:1004A400412000F08BF900220621412000F086F95A
:1004B4000023FB6002E0FB680133FB60FB682F4A0A
:1004C4009342F8DD01220021412000F077F9012256
:1004D4000121412000F072F901220221412000F0A3
:1004E4006DF901220321412000F068F90122042161
:1004F400412000F063F901220521412000F05EF95A
:1005040001220621412000F059F90023BB6002E0DA
:10051400BB680133BB60BB68184A9342F8DD012213
:100524000021412000F04AF901220121412000F07C
:1005340045F901220221412000F040F90122032162
:10054400412000F03BF900220421412000F036F95B
:1005540001220521412000F031F901220621412028
:1005640000F02CF900237B6002E07B6801337B60A0
:100574007B68024A9342F8DD3CE600BF3F420F002D
:1005840080B400AF064BD3F88830054A43F47003B7
:10059400C2F8883000BFBD465DF8047B704700BFD9
:1005A40000ED00E0DFF834D00D480E490E4A002378
:1005B40002E0D458C4500433C4188C42F9D30B4A13
:1005C4000B4C002301E013600432A242FBD3FFF77B
:1005D400D7FF00F065F9FFF7FBFD7047000001202D
:1005E40000000020000000200C090008000000208A
:1005F4001C000020FEE7000080B485B000AFB960A5
:100604007A603B600346FB73FB7B412B02D0422B99
:1006140064D0C7E0664B1B6B654A43F00103136368
:100624007B68032B3BD801A252F823F04106000853
:100634005B060008730600088B0600085D4B1B6808
:10064400BA685200032101FA02F2D2431146594A10
:100654000B40136023E0574B1B68BA68520001211A
:1006640001FA02F21146534A0B43136017E0514B4F
:100674001B68BA685200022101FA02F211464D4A7F
:100684000B4313600BE04B4B1B68BA685200032109
:1006940001FA02F21146474A0B43136000BF3B685C
:1006A400002B03D03B68012B0CD07BE0414B5B68F3
:1006B4000121BA6801FA02F2D24311463D4A0B40C5
:1006C40053600AE03B4B5B680121BA6801FA02F20D
:1006D4001146384A0B43536000BF63E0344B1B6B35
:1006E400334A43F0020313637B68032B3BD801A214
:1006F40052F823F009070008230700083B07000805
:10070400530700082C4B1B68BA685200032101FAF6
:1007140002F2D2431146284A0B40136023E0264BD1
:100724001B68BA685200012101FA02F21146224AFA
:100734000B43136017E0204B1B68BA685200022178
:1007440001FA02F211461C4A0B4313600BE01A4BE8
:100754001B68BA685200032101FA02F21146164AD4
:100764000B43136000BF3B68002B03D03B68012B95
:100774000CD016E0104B5B680121BA6801FA02F252
:10078400D24311460C4A0B4053600AE00A4B5B68A3
:100794000121BA6801FA02F21146074A0B43536079
:1007A40000BF00BF00BF1437BD465DF8047B70472F
:1007B40000380240000002400004024080B487B0C8
:1007C40000AF0346B9607A60FB73FB7B412B02D018
:1007D400422B2DD059E0304B1B68BA6852000321DC
:1007E40001FA02F21A40BB685B0022FA03F3012B00
:1007F4001BD17B68002B0AD0274B5B690121BA68A7
:1008040001FA02F21146244A0B4353610AE0224BD7
:100814005B690121BA6801FA02F2D24311461E4A09
:100824000B4053610023FB752FE00123FB752CE083
:100834001A4B1B68BA685200012101FA02F21A40ED
:10084400BB685B0022FA03F3002B1BD07B68002BF0
:100854000AD0124B5B690121BA6801FA02F211460F
:100864000E4A0B4353610AE00C4B5B690121BA68E1
:1008740001FA02F2D2431146084A0B4053610023A5
:10088400FB7501E00123FB7500BFFB7D18461C3797
:10089400BD465DF8047B704700000240000402403E
:1008A40070B50D4D0D4C641BA4100026A64209D151
:1008B4000B4D0C4C00F018F8641BA4100026A64243
:1008C40005D170BD55F8043B98470136EEE755F85D
:1008D400043B98470136F2E70409000804090008BC
:1008E4000409000808090008F8B500BFF8BC08BCF2
:1008F4009E467047F8B500BFF8BC08BC9E467047DA
:04090400B90100082D
:04090800950100084D
:04000005080005A941
:00000001FF
