:020000040800F2
:1000000000000120E905000839060008390600084B
:10001000390600083906000839060008000000000B
:100020000000000000000000000000003906000889
:1000300039060008000000003906000839060008EB
:100040003906000839060008390600083906000894
:1000500039060008390600088D040008510400081C
:100060003906000839060008390600083906000874
:100070003906000839060008390600083906000864
:10008000390600083906000839060008000000009B
:100090000000000000000000000000003906000819
:1000A0003906000839060008390600083906000834
:1000B0003906000839060008390600083906000824
:1000C0003906000839060008390600083906000814
:1000D000390600083906000839060008000000004B
:1000E000390600083906000839060008000000003B
:1000F00000000000000000000000000039060008B9
:10010000000000003906000839060008390600081A
:1001100000000000000000000000000000000000DF
:1001200039060008390600083906000839060008B3
:100130003906000800000000000000000000000078
:100140000000000000000000000000003906000868
:100150003906000839060008390600083906000883
:100160003906000839060008000000000000000001
:10017000000000000000000000000000000000007F
:100180000000000039060008000000000000000028
:040190003906000824
:1001940010B5054C237833B9044B13B10448AFF3BD
:1001A40000800123237010BD3400002000000000F3
:1001B4008406000808B5034B1BB103490348AFF399
:1001C400008008BD000000003800002084060008FC
:1001D40080B483B000AF0346FB71084B1B68FA7907
:1001E400012101FA02F21146044A0B43136000BFD5
:1001F4000C37BD465DF8047B704700BF30380240C1
:1002040090B482B000AF0446084611461A4623460D
:10021400FB710346BB710B467B7113463B71FA7944
:10022400564913469B0013449B000B441B681968F2
:10023400BB795B00032202FA03F3DB431C46FA7921
:100244004E4813469B0013449B0003441B6801EA79
:1002540004021A60FA79494913469B0013449B002F
:100264000B441B6819687A79BB795B0002FA03F3C3
:100274001C46FA79414813469B0013449B000344EF
:100284001B6841EA04021A60FA793C4913469B0050
:1002940013449B000B440C331B681968BB7901227F
:1002A40002FA03F3DB431C46FA79344813469B00F5
:1002B40013449B0003440C331B6801EA04021A60D4
:1002C400FA792E4913469B0013449B000B440C33CC
:1002D4001B6819683B7903F00102BB7902FA03F346
:1002E4001C46FA79254813469B0013449B0003449B
:1002F4000C331B6841EA04021A60FA791F49134659
:100304009B0013449B000B4410331B681968BB7992
:100314005B00032202FA03F3DB431C46FA79174815
:1003240013469B0013449B00034410331B6801EAEB
:1003340004021A60FA79114913469B0013449B0086
:100344000B4410331B6819683B795B1003F00302FC
:10035400BB795B0002FA03F31C46FA79074813469B
:100364009B0013449B00034410331B6841EA0402BE
:100374001A6000BF0837BD4690BC704700000020DB
:1003840090B484B000AF0346FB710B46BB711346B7
:100394007B71FA792C4913469B0013449B000B4450
:1003A4001B681B68BA795200032101FA02F21A4051
:1003B400BB795B0022FA03F3012B3DD17B79002B3F
:1003C4001BD0FA79204913469B0013449B000B442D
:1003D40008331B681968BB79012202FA03F31C462F
:1003E400FA79194813469B0013449B0003440833CD
:1003F4001B6841EA04021A601BE0FA7912491346A9
:100404009B0013449B000B4408331B681968BB7999
:10041400012202FA03F3DB431C46FA790A48134625
:100424009B0013449B00034408331B6801EA040245
:100434001A600023FB7301E00123FB73FB7B184666
:100444001037BD4690BC70470000002080B400AF58
:100454000B4B1B68013B0A4A1360094B1B68002BBA
:1004640002DA074B09221A60064B1B68054A43F05F
:100474000203136000BFBD465DF8047B704700BFF4
:1004840050000020143C014080B400AF0B4B1B68AB
:1004940001330A4A1360094B1B68092B02DD074B21
:1004A40000221A60064B1B68054A43F001031360DF
:1004B40000BFBD465DF8047B704700BF50000020BC
:1004C400143C014080B584B000AF0020FFF780FEEB
:1004D4000120FFF77DFE0223002200210020FFF708
:1004E4008FFE0223002201210020FFF789FE002352
:1004F400FB6009E0FB68D9B2002301220120FFF769
:100504007FFEFB680133FB60FB68062BF2DD244BA6
:100514001B68234A43F480431360224B1B68214A1F
:1005240023F00F0313601F4B1B681E4A23F0F003D4
:1005340013601D4B1B681C4A43F0030313601B4BE1
:100544001B681A4A43F003031360194BC0221A6054
:10055400184BC0221A60184B1B687B60144BC022D6
:100564001A600023FB7216E0144A7B6813441B785C
:100574001946FB7A012202FA03F301EA0302FB7A29
:1005840042FA03F3DAB2FB7A19460120FFF7F8FEC8
:10059400FB7A0133FB72FB7A062BE5D9D8E700BF5F
:1005A4004438024008380140003C01400C3C014002
:1005B40000E100E080E100E050000020280000207D
:1005C40080B400AF064BD3F88830054A43F4700377
:1005D400C2F8883000BFBD465DF8047B704700BF99
:1005E40000ED00E0DFF834D00D480E490E4A002338
:1005F40002E0D458C4500433C4188C42F9D30B4AD3
:100604000B4C002301E013600432A242FBD3FFF73A
:10061400D7FF00F011F8FFF755FF704700000120E5
:100624000000002034000020A4060008340000204C
:1006340054000020FEE7000070B50D4D0D4C641B06
:10064400A4100026A64209D10B4D0C4C00F018F85A
:10065400641BA4100026A64205D170BD55F8043BC6
:1006640098470136EEE755F8043B98470136F2E720
:100674009C0600089C0600089C060008A0060008CA
:10068400F8B500BFF8BC08BC9E467047F8B500BF7B
:08069400F8BC08BC9E4670474B
:04069C00B901000898
:0406A00095010008B8
:1006A4000000024010000240140002400400024016
:1006B4000C000240000402401004024014040240F2
:1006C400040402400C0402403F065B4F666D7D0744
:0406D4007F6F000034
:04000005080005E901
:00000001FF
