:020000040800F2
:1000000000000120D9060008290700082907000878
:100010002907000829070008290700080000000038
:100020000000000000000000000000002907000898
:100030002907000800000000290700082907000818
:1000400029070008290700082907000829070008D0
:1000500029070008290700082907000829070008C0
:1000600029070008290700082907000829070008B0
:1000700029070008290700082907000829070008A0
:1000800029070008290700082907000800000000C8
:100090000000000000000000000000002907000828
:1000A0002907000829070008290700082907000870
:1000B0002907000829070008290700082907000860
:1000C0002907000829070008290700082907000850
:1000D0002907000829070008290700080000000078
:1000E0002907000829070008290700080000000068
:1000F00000000000000000000000000029070008C8
:100100000000000029070008290700082907000847
:1001100000000000000000000000000000000000DF
:1001200029070008290700082907000829070008EF
:100130002907000800000000000000000000000087
:100140000000000000000000000000002907000877
:1001500029070008290700082907000829070008BF
:10016000290700082907000800000000000000001F
:10017000000000000000000000000000000000007F
:100180000000000029070008000000000000000037
:040190002907000833
:1001940010B5054C237833B9044B13B10448AFF3BD
:1001A40000800123237010BD4000002000000000E7
:1001B4007407000808B5034B1BB103490348AFF3A8
:1001C400008008BD000000004400002074070008FF
:1001D40080B483B000AF0346FB71084B1B68FA7907
:1001E400012101FA02F21146044A0B43136000BFD5
:1001F4000C37BD465DF8047B704700BF30380240C1
:1002040090B482B000AF0446084611461A4623460D
:10021400FB710346BB710B467B7113463B71FA7944
:10022400564913469B0013449B000B441B681968F2
:10023400BB795B00032202FA03F3DB431C46FA7921
:100244004E4813469B0013449B0003441B6801EA79
:1002540004021A60FA79494913469B0013449B002F
:100264000B441B6819687A79BB795B0002FA03F3C3
:100274001C46FA79414813469B0013449B000344EF
:100284001B6841EA04021A60FA793C4913469B0050
:1002940013449B000B440C331B681968BB7901227F
:1002A40002FA03F3DB431C46FA79344813469B00F5
:1002B40013449B0003440C331B6801EA04021A60D4
:1002C400FA792E4913469B0013449B000B440C33CC
:1002D4001B6819683B7903F00102BB7902FA03F346
:1002E4001C46FA79254813469B0013449B0003449B
:1002F4000C331B6841EA04021A60FA791F49134659
:100304009B0013449B000B4410331B681968BB7992
:100314005B00032202FA03F3DB431C46FA79174815
:1003240013469B0013449B00034410331B6801EAEB
:1003340004021A60FA79114913469B0013449B0086
:100344000B4410331B6819683B795B1003F00302FC
:10035400BB795B0002FA03F31C46FA79074813469B
:100364009B0013449B00034410331B6841EA0402BE
:100374001A6000BF0837BD4690BC704700000020DB
:1003840090B484B000AF0346FB710B46BB711346B7
:100394007B71FA792C4913469B0013449B000B4450
:1003A4001B681B68BA795200032101FA02F21A4051
:1003B400BB795B0022FA03F3012B3DD17B79002B3F
:1003C4001BD0FA79204913469B0013449B000B442D
:1003D40008331B681968BB79012202FA03F31C462F
:1003E400FA79194813469B0013449B0003440833CD
:1003F4001B6841EA04021A601BE0FA7912491346A9
:100404009B0013449B000B4408331B681968BB7999
:10041400012202FA03F3DB431C46FA790A48134625
:100424009B0013449B00034408331B6801EA040245
:100434001A600023FB7301E00123FB73FB7B184666
:100444001037BD4690BC70470000002080B485B0D2
:1004540000AF03460A46FB711346BB710023FB73CE
:10046400FA790C4913469B0013449B000B44043354
:100474001B681B68BA79012101FA02F21A40BB79A0
:1004840022FA03F3FB73FB7B18461437BD465DF871
:10049400047B70470000002080B483B000AF0023C9
:1004A4007B6002E07B6801337B607B6847F22F52FC
:1004B4009342F7D900BF00BF0C37BD465DF8047BFB
:1004C400704780B582B000AF0120FFF781FE0023A2
:1004D4007B6009E07B68D9B2022300220120FFF788
:1004E4008FFE7B6801337B607B68032BF2DD042382
:1004F4003B6010E03B68D9B2002301220120FFF7E2
:100504007FFE3B68DBB2012219460120FFF738FF6A
:100514003B6801333B603B68062BEBDD00BF00BF4B
:100524000837BD4680BD000080B582B000AF264BC1
:100534001B78002B44D104237B603EE07B68DBB254
:10054400002219460120FFF71BFF00233B6027E030
:100554003B68DBB219460120FFF778FF0346002B06
:100564001BD1FFF799FF3B68DBB219460120FFF767
:100574006DFF0346002B10D1134B01221A707B68C8
:10058400191F12483A6813465B00134403440B4492
:100594001A780F4B1A7000F033F83B6801333B6054
:1005A4003B68032BD4DD7B68DBB2012219460120B2
:1005B400FFF7E6FE7B6801337B607B68062BBDDDBD
:1005C40000BF0837BD4680BD5C0000202800002025
:1005D4005D00002080B400AF074B1B78012B05D1D0
:1005E400054B00221A70054B1B7800E0FF231846C8
:1005F400BD465DF8047B70475C0000205D00002070
:1006040080B584B000AFFFF7E5FF0346FB7100231C
:10061400FB6027E0174AFB6813441B78FA799A4277
:100624001DD10023BB6017E0BB68D9B2114AFB6837
:1006340013441B7818460122BB6802FA03F300EA4C
:100644000302BB6842FA03F3DBB21A460020FFF749
:1006540097FEBB680133BB60BB68062BE4DDFB6817
:100664000133FB60FB68092BD4DD00BF00BF1037EA
:10067400BD4680BD3400002080B582B000AF0020AC
:10068400FFF7A6FD00237B6009E07B68D9B2002355
:1006940001220020FFF7B4FD7B6801337B607B6897
:1006A400062BF2DDFFF70DFFFFF73EFFFCE700002E
:1006B40080B400AF064BD3F88830054A43F4700386
:1006C400C2F8883000BFBD465DF8047B704700BFA8
:1006D40000ED00E0DFF834D00D480E490E4A002347
:1006E40002E0D458C4500433C4188C42F9D30B4AE2
:1006F4000B4C002301E013600432A242FBD3FFF74A
:10070400D7FF00F011F8FFF7B7FF70470000012092
:100714000000002040000020940700084000002052
:1007240060000020FEE7000070B50D4D0D4C641B09
:10073400A4100026A64209D10B4D0C4C00F018F869
:10074400641BA4100026A64205D170BD55F8043BD5
:1007540098470136EEE755F8043B98470136F2E72F
:100764008C0700088C0700088C0700089007000815
:10077400F8B500BFF8BC08BC9E467047F8B500BF8A
:08078400F8BC08BC9E4670475A
:04078C00B9010008A7
:0407900095010008C7
:100794000000024010000240140002400400024025
:1007A4000C00024000040240100402401404024001
:1007B400040402400C040240065B4F666D7D077F13
:1007C4006F3F3F3F3F065B4F666D7D077F6F0000C5
:04000005080006D910
:00000001FF
